:1000000072C0000080C000007EC000007CC0000004
:100010007AC0000078C0000076C0000074C0000004
:1000200072C0000070C000006EC000006CC0000014
:100030006AC0000068C0000066C0000064C0000024
:1000400062C0000060C000005EC000005CC0000034
:100050005AC0000058C0000056C0000054C0000044
:1000600052C0000050C000004EC000004CC0000054
:100070004AC0000048C0000046C0000044C0000064
:1000800042C0000040C00000AAC3000008000000F9
:10009000BE922449123EABAAAA2ABECDCCCC4C3E7D
:1000A00000000080BEABAAAAAA3E00000000BF006C
:1000B0000000803F0000000000084178D3BB438768
:1000C000D1133D190E3CC3BD4282AD2B3E68EC827C
:1000D00076BED98FE1A93E4C80EFFFBE01C4FF7F01
:1000E0003F000000000011241FBECFEFD0E4DEBFB0
:1000F000CDBF21E0A0E0B1E001C01D92A835B2075C
:10010000E1F7E3D37CC77CCF249A84B5836284BDB6
:1001100085B5856085BD16BC18BC0895682F70E054
:1001200080E090E0E1D523E333E343E250E4D1D62D
:10013000ADD568BD08958AB180638AB9E0E8F0E082
:100140008081826A8083E1E8F0E080818B61808336
:1001500080E090E89093870080938600109285005D
:1001600010928400109289001092880010928B00E7
:1001700010928A0008958F7B813079F470E080E0DE
:1001800090E0B2D52AE037ED43EA53E4A2D67ED51B
:1001900070938900609388000895823071F470E054
:1001A00080E090E0A1D52AE037ED43EA53E491D610
:1001B0006DD570938B0060938A000895ECE7F0E0B2
:1001C000808180648083EAE7F0E0808187608083BB
:1001D0008081806880838081806480830895ECE7DB
:1001E000F0E09081907E90839081892B8083EAE774
:1001F000F0E0808180648083808186FDFDCF8091E6
:1002000078009091790008954F925F926F927F925B
:100210008F929F92AF92BF92CF92DF92EF92FF9216
:100220000F931F93CF93C82F2A013B014801590117
:10023000C5DF8C2F8F7B8130D1F40F984092540111
:100240005092550160925601709257018092500170
:1002500090925101A0925201B0925301C0924C0170
:10026000D0924D01E0924E01F0924F011BC08230BE
:10027000C9F40E98409248015092490160924A0197
:1002800070924B018092440190924501A0924601E8
:10029000B0924701C0924001D0924101E0924201E8
:1002A000F0924301CF911F910F91FF90EF90DF905B
:1002B000CF90BF90AF909F908F907F906F905F9006
:1002C0004F900895CF92DF92EF92FF92CF93DF93FA
:1002D0008F7B813021F487E082DFEC0105C0823022
:1002E00019F486E07CDFEC01BE0180E090E0FAD4F6
:1002F0006B017C016FEF73E06C1B7D0B80E090E085
:10030000F1D49B01AC01C701B60158D420E030EE16
:1003100042E955E4DED5DF91CF91FF90EF90DF9079
:10032000CF9008954F925F926F927F928F929F929B
:10033000AF92BF92CF92DF92EF92FF92CF93DF9373
:1003400000D000D0CDB7DEB78983BCDF2B013C01E4
:1003500089818F7B8983813009F043C023E333E9AE
:1003600048E853E46091500170915101809152012D
:1003700090915301BBD34B015C01C0904C01D090D4
:100380004D01E0904E01F0904F01209154013091C9
:1003900055014091560150915701C301B2010ED44D
:1003A00058D569837A838B839C83A7019601C50105
:1003B000B4018FD52B013C0129813A814B815C81AD
:1003C000C501B40186D5A701960190D39B01AC016C
:1003D000C301B201F3D323E333E948E853E485D3FF
:1003E00048C08981823009F043C023E333E948E8FB
:1003F00053E46091440170914501809146019091D0
:10040000470174D34B015C01C0904001D090410181
:10041000E0904201F0904301209148013091490160
:1004200040914A0150914B01C301B201C7D311D58C
:1004300069837A838B839C83A7019601C501B401EC
:1004400048D52B013C0129813A814B815C81C50152
:10045000B4013FD5A701960149D39B01AC01C3016B
:10046000B201ACD323E333E948E853E43ED301C0FF
:1004700004C0562F472F382F292F652F742F832F15
:10048000922F0F900F900F900F90DF91CF91FF90D0
:10049000EF90DF90CF90BF90AF909F908F907F9024
:1004A0006F905F904F900895813011F0883509F575
:1004B00070933F0160933E0180E090E013D49B0174
:1004C000AC0160E070E084EB93E478D320E030E0AE
:1004D00040E85DE3FED4609334017093350180936E
:1004E0003601909337018AB1806C8AB95E983D9A43
:1004F0000895823011F0893509F570933D016093BC
:100500003C0180E090E0EED39B01AC0160E070E044
:1005100084EB93E453D320E030E040E85DE3D9D4AA
:1005200060933001709331018093320190933301D5
:10053000569A5E9887B1806C87B90895833011F020
:100540008A3509F570933B0160933A0180E090E0B1
:10055000C9D39B01AC0160E070E084EB93E42ED33F
:1005600020E030E040E85DE3B4D460932C01709368
:100570002D0180932E0190932F010D9A159884B12F
:100580008C6084B90895843011F0853401F570933E
:1005900039016093380180E090E0A4D39B01AC0165
:1005A00060E070E084EB93E409D320E030E040E8C1
:1005B0005DE38FD4609328017093290180932A0111
:1005C00090932B01569A5E9884B1836084B9089504
:1005D000CF92DF92EF92FF92813011F0883551F582
:1005E000633451F4459A211531054105510509F44B
:1005F000A9C080E090E004C06134A9F74598F3CF2A
:100600005F9AE7ECF0E03197F1F700C000005F98E7
:10061000E7ECF0E03197F1F700C0000001966C01C3
:10062000092E000CEE08FF08C216D306E406F506F4
:1006300038F388C0823011F0893551F5633451F4B4
:10064000479A211531054105510509F47BC080E029
:1006500090E004C06134A9F74798F3CF469AE7ECDD
:10066000F0E03197F1F700C000004698E7ECF0E0C9
:100670003197F1F700C0000001966C01092E000CC3
:10068000EE08FF08C216D306E406F50638F35AC092
:10069000833011F08A3551F5633451F42A9A2115CB
:1006A00031054105510509F44DC080E090E004C0DA
:1006B0006134A9F72A98F3CF2B9AE7ECF0E0319751
:1006C000F1F700C000002B98E7ECF0E03197F1F76C
:1006D00000C0000001966C01092E000CEE08FF0816
:1006E000C216D306E406F50638F32CC0843011F0A8
:1006F000853441F5633449F4289A211531054105C3
:10070000510501F180E090E004C06134B1F7289810
:10071000F4CF299AE7ECF0E03197F1F700C0000040
:100720002998E7ECF0E03197F1F700C0000001965E
:100730006C01092E000CEE08FF08C216D306E40671
:10074000F50638F3FF90EF90DF90CF900895813059
:1007500011F0883511F43A980895823011F08935F6
:1007600011F43B980895833011F08A3509F43C98D0
:100770000895813011F0883519F486B18470089598
:10078000823011F0893519F486B18870089583306C
:1007900011F08A3519F486B1807108950895109288
:1007A000C50087E68093C400E2ECF0E080818660BB
:1007B0008083E1ECF0E08081886180830895E0EC43
:1007C000F0E0908195FFFDCF8093C6000895E0ECA6
:1007D000F0E080818823ECF78091C60008951F9295
:1007E0000F920FB60F9211240BB60F922F933F93D7
:1007F0004F935F936F937F938F939F93AF93BF9329
:10080000EF93FF93809101018823E1F081E48ADD79
:10081000609306017093070180930801909309018A
:1008200020910E0130910F01409110015091110162
:10083000C1D1882324F46AE081E49DDC03C060E038
:1008400081E499DC809100018823E1F082E46ADD93
:10085000609302017093030180930401909305015A
:1008600020910A0130910B0140910C0150910D0132
:10087000A1D1882324F46AE082E47DDC03C060E037
:1008800082E479DCFF91EF91BF91AF919F918F91BD
:100890007F916F915F914F913F912F910F900BBE80
:1008A0000F900FBE0F901F901895E1E9F0E0808146
:1008B00084608083E1E7F0E08081816080837894C8
:1008C0001092950010929400089569DF1DDC33DCCE
:1008D00088E53DDF89E53BDF8AE539DF68EC70E0DC
:1008E00088E5E2DD68EC70E089E5DEDD68EC70E06B
:1008F0008AE5DADD68EC70E085E4D6DD0F2EC12CE8
:10090000F0E2DF2EF9E9EF2EF5E4FF2EF02D00E006
:1009100010E028EC31E440E050E563EC77E481E45A
:1009200073DC00E010E028EC31E440E050E563ECDB
:1009300077E482E469DCB9DFCEE1D1E0BB24B39493
:1009400046DF80931C0190911D01E92FF0E0E25EEB
:10095000FE4F80839F5F90931D018A3389F7109229
:100960001D018981803569F038F4853409F4B7C0F8
:10097000883409F46BC0E4CF833581F0843549F1C4
:10098000DFCF8A81803319F0813321F0D9CF8B8179
:10099000C5DBD6CF6C818B81EEDBD2CF8A818934E7
:1009A00019F0833531F0CCCF6C8170E08B817CDD28
:1009B000C7CF2D8130E0322F22278E81282B309314
:1009C0001B0120931A0140E050E06C818B8100DE16
:1009D000B7CF8A81893419F0843581F1B1CF6C8128
:1009E00070E080E090E07ED120E030E04AE754E41F
:1009F00070D22B013C016093160170931701809314
:100A00001801909319016E8170E0762F66278F810F
:100A1000682B709315016093140180E090E062D11F
:100A20006B017C016D8170E080E090E05BD18B0117
:100A30009C01B301A2018B81E7DB82CF8B8172DC49
:100A400025D1862F60931201BADE7ACF8A81853450
:100A500031F0843501F1843409F072CF0EC08B81FE
:100A6000982F9F7B913019F4B092010169CF8234A5
:100A700009F066CFB092000163CF8B81982F9F7BE6
:100A8000913019F4109201015BCF823409F058CFF4
:100A90001092000155CF8B81982F9F7B913071F47C
:100AA0006C8170E080E090E01DD160930E01709346
:100AB0000F01809310019093110142CF823409F00D
:100AC0003FCF6C8170E080E090E00CD160930A0130
:100AD00070930B0180930C0190930D0131CF8A81AB
:100AE00048DE809313016BDE2BCF5058BB27AA271B
:100AF0000ED070C161D130F066D120F031F49F3F4B
:100B000011F41EF456C10EF4E095E7FB4CC1E92F39
:100B100072D180F3BA17620773078407950718F03C
:100B200071F49EF58AC10EF4E0950B2EBA2FA02D1C
:100B30000B01B90190010C01CA01A0011124FF278A
:100B4000591B99F0593F50F4503E68F11A16F04085
:100B5000A22F232F342F4427585FF3CF4695379584
:100B60002795A795F0405395C9F77EF41F16BA0B49
:100B7000620B730B840BBAF09150A1F0FF0FBB1FF7
:100B8000661F771F881FC2F70EC0BA0F621F731F40
:100B9000841F48F4879577956795B795F7959E3F9D
:100BA00008F0B3CF9395880F08F09927EE0F97952B
:100BB00087950895D4D008F481E008950CD00AC137
:100BC00002D140F0F9D030F021F45F3F19F0EBC0D2
:100BD000511134C1EEC00FD198F39923C9F35523B5
:100BE000B1F3951B550BBB27AA2762177307840720
:100BF00038F09F5F5F4F220F331F441FAA1FA9F3D6
:100C000033D00E2E3AF0E0E830D091505040E695C7
:100C1000001CCAF729D0FE2F27D0660F771F881F28
:100C2000BB1F261737074807AB07B0E809F0BB0B17
:100C3000802DBF01FF2793585F4F2AF09E3F51053B
:100C400068F0B1C0FBC05F3FECF3983EDCF38695E3
:100C500077956795B795F7959F5FC9F7880F911DB1
:100C60009695879597F90895E1E0660F771F881F9D
:100C7000BB1F621773078407BA0720F0621B730B50
:100C8000840BBA0BEE1F88F7E0950895BCD088F06E
:100C90009F5790F0B92F9927B751A0F0D1F0660F68
:100CA000771F881F991F1AF0BA95C9F712C0B13083
:100CB00081F0C3D0B1E00895C0C0672F782F882796
:100CC000B85F39F0B93FCCF3869577956795B395C2
:100CD000D9F73EF490958095709561957F4F8F4F31
:100CE0009F4F0895E89409C097FB3EF49095809536
:100CF000709561957F4F8F4F9F4F9923A9F0F92FE2
:100D000096E9BB279395F695879577956795B7955F
:100D1000F111F8CFFAF4BB0F11F460FF1BC06F5F45
:100D20007F4F8F4F9F4F16C0882311F096E911C057
:100D3000772321F09EE8872F762F05C0662371F078
:100D400096E8862F70E060E02AF09A95660F771F8C
:100D5000881FDAF7880F9695879597F90895990F68
:100D60000008550FAA0BE0E8FEEF16161706E80775
:100D7000F907C0F012161306E407F50798F0621B96
:100D8000730B840B950B39F40A2661F0232B242B6B
:100D9000252B21F408950A2609F4A140A6958FEF8A
:100DA000811D811D089597F99F6780E870E060E0DC
:100DB00008959FEF80EC089500240A9416161706F4
:100DC00018060906089500240A941216130614063C
:100DD00005060895092E0394000C11F4882352F09F
:100DE000BB0F40F4BF2B11F460FF04C06F5F7F4F57
:100DF0008F4F9F4F089557FD9058440F551F59F03E
:100E00005F3F71F04795880F97FB991F61F09F3FF7
:100E100079F087950895121613061406551FF2CF20
:100E20004695F1DF08C0161617061806991FF1CF70
:100E300086957105610508940895E894BB27662797
:100E40007727CB0197F908950EF0A6C0B2CF68942A
:100E5000AACFD9DFC8F39923D1F3C6F3DF93CF9399
:100E60001F930F93FF92C92FDD2788232AF0219724
:100E7000660F771F881FDAF720E030E040E85FEB6D
:100E80009FE3883920F0803E30F021968F772EDE68
:100E9000ECE8F0E003C02ADEE9EBF0E08BD08B0158
:100EA000BE01EC01FB2E6F5771097595771F880BFA
:100EB000990B1ADF28E132E741E35FE316D0AF2D4B
:100EC0009801AE01FF900F911F91CF91DF911FDE2E
:100ED00081CF0BD07FCF70DF28F075DF18F095231E
:100EE00009F061CF66CF1124A9CF85DFA0F3959FCC
:100EF000D1F3950F50E0551F629FF001729FBB2701
:100F0000F00DB11D639FAA27F00DB11DAA1F649FAC
:100F10006627B00DA11D661F829F2227B00DA11D5F
:100F2000621F739FB00DA11D621F839FA00D611DE5
:100F3000221F749F3327A00D611D231F849F600D06
:100F4000211D822F762F6A2F11249F5750408AF03F
:100F5000E1F088234AF0EE0FFF1FBB1F661F771FCB
:100F6000881F91505040A9F79E3F510570F01BCF4C
:100F700065CF5F3FECF3983EDCF3869577956795F8
:100F8000B795F795E7959F5FC1F7FE2B880F911DE9
:100F90009695879597F908959F3F31F0915020F4E9
:100FA000879577956795B795880F911D9695879545
:100FB00097F90895DF93CF931F930F93FF92EF92CA
:100FC000DF927B018C01689405C0DA2EEF018DDF82
:100FD000FE01E894A5912591359145915591AEF387
:100FE000EF0195DDFE019701A801DA9479F7DF9012
:100FF000EF90FF900F911F91CF91DF910895F8949A
:02100000FFCF20
:00000001FF
